{
  "_format": "hh-sol-artifact-1",
  "contractName": "Disscord",
  "sourceName": "contracts/Disscord.sol",
  "abi": [
    {
      "inputs": [
        {
          "internalType": "uint256",
          "name": "",
          "type": "uint256"
        }
      ],
      "name": "channels",
      "outputs": [
        {
          "internalType": "bytes32",
          "name": "id",
          "type": "bytes32"
        },
        {
          "internalType": "string",
          "name": "name",
          "type": "string"
        },
        {
          "internalType": "string",
          "name": "about",
          "type": "string"
        },
        {
          "internalType": "bytes32",
          "name": "serverId",
          "type": "bytes32"
        },
        {
          "internalType": "address payable",
          "name": "createdBy",
          "type": "address"
        },
        {
          "internalType": "uint256",
          "name": "createdAt",
          "type": "uint256"
        },
        {
          "internalType": "uint256",
          "name": "updatedAt",
          "type": "uint256"
        }
      ],
      "stateMutability": "view",
      "type": "function"
    },
    {
      "inputs": [
        {
          "internalType": "string",
          "name": "_name",
          "type": "string"
        },
        {
          "internalType": "string",
          "name": "_about",
          "type": "string"
        },
        {
          "internalType": "bytes32",
          "name": "_serverId",
          "type": "bytes32"
        }
      ],
      "name": "createChannel",
      "outputs": [
        {
          "components": [
            {
              "internalType": "bytes32",
              "name": "id",
              "type": "bytes32"
            },
            {
              "internalType": "string",
              "name": "name",
              "type": "string"
            },
            {
              "internalType": "string",
              "name": "about",
              "type": "string"
            },
            {
              "internalType": "bytes32",
              "name": "serverId",
              "type": "bytes32"
            },
            {
              "internalType": "address payable",
              "name": "createdBy",
              "type": "address"
            },
            {
              "internalType": "uint256",
              "name": "createdAt",
              "type": "uint256"
            },
            {
              "internalType": "uint256",
              "name": "updatedAt",
              "type": "uint256"
            }
          ],
          "internalType": "struct Disscord.Channel",
          "name": "",
          "type": "tuple"
        }
      ],
      "stateMutability": "nonpayable",
      "type": "function"
    },
    {
      "inputs": [
        {
          "internalType": "string",
          "name": "_name",
          "type": "string"
        },
        {
          "internalType": "string",
          "name": "_about",
          "type": "string"
        }
      ],
      "name": "createServer",
      "outputs": [
        {
          "components": [
            {
              "internalType": "bytes32",
              "name": "id",
              "type": "bytes32"
            },
            {
              "internalType": "string",
              "name": "name",
              "type": "string"
            },
            {
              "internalType": "string",
              "name": "about",
              "type": "string"
            },
            {
              "internalType": "address payable",
              "name": "createdBy",
              "type": "address"
            },
            {
              "internalType": "uint256",
              "name": "createdAt",
              "type": "uint256"
            }
          ],
          "internalType": "struct Disscord.Server",
          "name": "",
          "type": "tuple"
        }
      ],
      "stateMutability": "nonpayable",
      "type": "function"
    },
    {
      "inputs": [
        {
          "internalType": "bytes32",
          "name": "id",
          "type": "bytes32"
        }
      ],
      "name": "findChannelById",
      "outputs": [
        {
          "components": [
            {
              "internalType": "bytes32",
              "name": "id",
              "type": "bytes32"
            },
            {
              "internalType": "string",
              "name": "name",
              "type": "string"
            },
            {
              "internalType": "string",
              "name": "about",
              "type": "string"
            },
            {
              "internalType": "bytes32",
              "name": "serverId",
              "type": "bytes32"
            },
            {
              "internalType": "address payable",
              "name": "createdBy",
              "type": "address"
            },
            {
              "internalType": "uint256",
              "name": "createdAt",
              "type": "uint256"
            },
            {
              "internalType": "uint256",
              "name": "updatedAt",
              "type": "uint256"
            }
          ],
          "internalType": "struct Disscord.Channel",
          "name": "",
          "type": "tuple"
        }
      ],
      "stateMutability": "view",
      "type": "function"
    },
    {
      "inputs": [
        {
          "internalType": "bytes32",
          "name": "_serverId",
          "type": "bytes32"
        },
        {
          "internalType": "bytes32",
          "name": "_channelId",
          "type": "bytes32"
        }
      ],
      "name": "findChannelInServer",
      "outputs": [
        {
          "components": [
            {
              "components": [
                {
                  "internalType": "bytes32",
                  "name": "id",
                  "type": "bytes32"
                },
                {
                  "internalType": "string",
                  "name": "name",
                  "type": "string"
                },
                {
                  "internalType": "string",
                  "name": "about",
                  "type": "string"
                },
                {
                  "internalType": "address payable",
                  "name": "createdBy",
                  "type": "address"
                },
                {
                  "internalType": "uint256",
                  "name": "createdAt",
                  "type": "uint256"
                }
              ],
              "internalType": "struct Disscord.Server",
              "name": "server",
              "type": "tuple"
            },
            {
              "components": [
                {
                  "internalType": "bytes32",
                  "name": "id",
                  "type": "bytes32"
                },
                {
                  "internalType": "string",
                  "name": "name",
                  "type": "string"
                },
                {
                  "internalType": "string",
                  "name": "about",
                  "type": "string"
                },
                {
                  "internalType": "bytes32",
                  "name": "serverId",
                  "type": "bytes32"
                },
                {
                  "internalType": "address payable",
                  "name": "createdBy",
                  "type": "address"
                },
                {
                  "internalType": "uint256",
                  "name": "createdAt",
                  "type": "uint256"
                },
                {
                  "internalType": "uint256",
                  "name": "updatedAt",
                  "type": "uint256"
                }
              ],
              "internalType": "struct Disscord.Channel",
              "name": "channel",
              "type": "tuple"
            },
            {
              "internalType": "uint256",
              "name": "createdAt",
              "type": "uint256"
            }
          ],
          "internalType": "struct Disscord.ServerChannel",
          "name": "",
          "type": "tuple"
        }
      ],
      "stateMutability": "view",
      "type": "function"
    },
    {
      "inputs": [
        {
          "internalType": "bytes32",
          "name": "id",
          "type": "bytes32"
        }
      ],
      "name": "findServerById",
      "outputs": [
        {
          "components": [
            {
              "internalType": "bytes32",
              "name": "id",
              "type": "bytes32"
            },
            {
              "internalType": "string",
              "name": "name",
              "type": "string"
            },
            {
              "internalType": "string",
              "name": "about",
              "type": "string"
            },
            {
              "internalType": "address payable",
              "name": "createdBy",
              "type": "address"
            },
            {
              "internalType": "uint256",
              "name": "createdAt",
              "type": "uint256"
            }
          ],
          "internalType": "struct Disscord.Server",
          "name": "",
          "type": "tuple"
        }
      ],
      "stateMutability": "view",
      "type": "function"
    },
    {
      "inputs": [
        {
          "internalType": "address",
          "name": "_address",
          "type": "address"
        }
      ],
      "name": "findUserByAddress",
      "outputs": [
        {
          "components": [
            {
              "internalType": "bytes32",
              "name": "id",
              "type": "bytes32"
            },
            {
              "internalType": "string",
              "name": "username",
              "type": "string"
            },
            {
              "internalType": "address",
              "name": "userAddress",
              "type": "address"
            },
            {
              "internalType": "uint256",
              "name": "createdAt",
              "type": "uint256"
            },
            {
              "internalType": "uint256",
              "name": "updatedAt",
              "type": "uint256"
            }
          ],
          "internalType": "struct Disscord.User",
          "name": "",
          "type": "tuple"
        }
      ],
      "stateMutability": "view",
      "type": "function"
    },
    {
      "inputs": [
        {
          "internalType": "string",
          "name": "_username",
          "type": "string"
        }
      ],
      "name": "findUserByUsername",
      "outputs": [
        {
          "components": [
            {
              "internalType": "bytes32",
              "name": "id",
              "type": "bytes32"
            },
            {
              "internalType": "string",
              "name": "username",
              "type": "string"
            },
            {
              "internalType": "address",
              "name": "userAddress",
              "type": "address"
            },
            {
              "internalType": "uint256",
              "name": "createdAt",
              "type": "uint256"
            },
            {
              "internalType": "uint256",
              "name": "updatedAt",
              "type": "uint256"
            }
          ],
          "internalType": "struct Disscord.User",
          "name": "",
          "type": "tuple"
        }
      ],
      "stateMutability": "view",
      "type": "function"
    },
    {
      "inputs": [
        {
          "internalType": "bytes32",
          "name": "_channelId",
          "type": "bytes32"
        },
        {
          "internalType": "address",
          "name": "_address",
          "type": "address"
        }
      ],
      "name": "findUserInChannel",
      "outputs": [
        {
          "components": [
            {
              "internalType": "bytes32",
              "name": "serverId",
              "type": "bytes32"
            },
            {
              "internalType": "bytes32",
              "name": "channelId",
              "type": "bytes32"
            },
            {
              "internalType": "address",
              "name": "user",
              "type": "address"
            },
            {
              "internalType": "uint256",
              "name": "createdAt",
              "type": "uint256"
            }
          ],
          "internalType": "struct Disscord.ServerChannelUser",
          "name": "",
          "type": "tuple"
        }
      ],
      "stateMutability": "view",
      "type": "function"
    },
    {
      "inputs": [
        {
          "internalType": "bytes32",
          "name": "_serverId",
          "type": "bytes32"
        },
        {
          "internalType": "address",
          "name": "_address",
          "type": "address"
        }
      ],
      "name": "findUserInServer",
      "outputs": [
        {
          "components": [
            {
              "components": [
                {
                  "internalType": "bytes32",
                  "name": "id",
                  "type": "bytes32"
                },
                {
                  "internalType": "string",
                  "name": "name",
                  "type": "string"
                },
                {
                  "internalType": "string",
                  "name": "about",
                  "type": "string"
                },
                {
                  "internalType": "address payable",
                  "name": "createdBy",
                  "type": "address"
                },
                {
                  "internalType": "uint256",
                  "name": "createdAt",
                  "type": "uint256"
                }
              ],
              "internalType": "struct Disscord.Server",
              "name": "server",
              "type": "tuple"
            },
            {
              "components": [
                {
                  "internalType": "bytes32",
                  "name": "id",
                  "type": "bytes32"
                },
                {
                  "internalType": "string",
                  "name": "username",
                  "type": "string"
                },
                {
                  "internalType": "address",
                  "name": "userAddress",
                  "type": "address"
                },
                {
                  "internalType": "uint256",
                  "name": "createdAt",
                  "type": "uint256"
                },
                {
                  "internalType": "uint256",
                  "name": "updatedAt",
                  "type": "uint256"
                }
              ],
              "internalType": "struct Disscord.User",
              "name": "user",
              "type": "tuple"
            },
            {
              "internalType": "uint256",
              "name": "createdAt",
              "type": "uint256"
            }
          ],
          "internalType": "struct Disscord.ServerUser",
          "name": "",
          "type": "tuple"
        }
      ],
      "stateMutability": "view",
      "type": "function"
    },
    {
      "inputs": [],
      "name": "getChannelUsers",
      "outputs": [
        {
          "components": [
            {
              "internalType": "bytes32",
              "name": "serverId",
              "type": "bytes32"
            },
            {
              "internalType": "bytes32",
              "name": "channelId",
              "type": "bytes32"
            },
            {
              "internalType": "address",
              "name": "user",
              "type": "address"
            },
            {
              "internalType": "uint256",
              "name": "createdAt",
              "type": "uint256"
            }
          ],
          "internalType": "struct Disscord.ServerChannelUser[]",
          "name": "",
          "type": "tuple[]"
        }
      ],
      "stateMutability": "view",
      "type": "function"
    },
    {
      "inputs": [],
      "name": "getChannels",
      "outputs": [
        {
          "components": [
            {
              "internalType": "bytes32",
              "name": "id",
              "type": "bytes32"
            },
            {
              "internalType": "string",
              "name": "name",
              "type": "string"
            },
            {
              "internalType": "string",
              "name": "about",
              "type": "string"
            },
            {
              "internalType": "bytes32",
              "name": "serverId",
              "type": "bytes32"
            },
            {
              "internalType": "address payable",
              "name": "createdBy",
              "type": "address"
            },
            {
              "internalType": "uint256",
              "name": "createdAt",
              "type": "uint256"
            },
            {
              "internalType": "uint256",
              "name": "updatedAt",
              "type": "uint256"
            }
          ],
          "internalType": "struct Disscord.Channel[]",
          "name": "",
          "type": "tuple[]"
        }
      ],
      "stateMutability": "view",
      "type": "function"
    },
    {
      "inputs": [],
      "name": "getMessages",
      "outputs": [
        {
          "components": [
            {
              "internalType": "bytes32",
              "name": "id",
              "type": "bytes32"
            },
            {
              "internalType": "string",
              "name": "message",
              "type": "string"
            },
            {
              "internalType": "bytes32",
              "name": "serverId",
              "type": "bytes32"
            },
            {
              "internalType": "bytes32",
              "name": "channelId",
              "type": "bytes32"
            },
            {
              "internalType": "address",
              "name": "createdBy",
              "type": "address"
            },
            {
              "internalType": "uint256",
              "name": "createdAt",
              "type": "uint256"
            },
            {
              "internalType": "uint256",
              "name": "updatedAt",
              "type": "uint256"
            }
          ],
          "internalType": "struct Disscord.Message[]",
          "name": "",
          "type": "tuple[]"
        }
      ],
      "stateMutability": "view",
      "type": "function"
    },
    {
      "inputs": [],
      "name": "getServerChannels",
      "outputs": [
        {
          "components": [
            {
              "components": [
                {
                  "internalType": "bytes32",
                  "name": "id",
                  "type": "bytes32"
                },
                {
                  "internalType": "string",
                  "name": "name",
                  "type": "string"
                },
                {
                  "internalType": "string",
                  "name": "about",
                  "type": "string"
                },
                {
                  "internalType": "address payable",
                  "name": "createdBy",
                  "type": "address"
                },
                {
                  "internalType": "uint256",
                  "name": "createdAt",
                  "type": "uint256"
                }
              ],
              "internalType": "struct Disscord.Server",
              "name": "server",
              "type": "tuple"
            },
            {
              "components": [
                {
                  "internalType": "bytes32",
                  "name": "id",
                  "type": "bytes32"
                },
                {
                  "internalType": "string",
                  "name": "name",
                  "type": "string"
                },
                {
                  "internalType": "string",
                  "name": "about",
                  "type": "string"
                },
                {
                  "internalType": "bytes32",
                  "name": "serverId",
                  "type": "bytes32"
                },
                {
                  "internalType": "address payable",
                  "name": "createdBy",
                  "type": "address"
                },
                {
                  "internalType": "uint256",
                  "name": "createdAt",
                  "type": "uint256"
                },
                {
                  "internalType": "uint256",
                  "name": "updatedAt",
                  "type": "uint256"
                }
              ],
              "internalType": "struct Disscord.Channel",
              "name": "channel",
              "type": "tuple"
            },
            {
              "internalType": "uint256",
              "name": "createdAt",
              "type": "uint256"
            }
          ],
          "internalType": "struct Disscord.ServerChannel[]",
          "name": "",
          "type": "tuple[]"
        }
      ],
      "stateMutability": "view",
      "type": "function"
    },
    {
      "inputs": [],
      "name": "getServerUsers",
      "outputs": [
        {
          "components": [
            {
              "components": [
                {
                  "internalType": "bytes32",
                  "name": "id",
                  "type": "bytes32"
                },
                {
                  "internalType": "string",
                  "name": "name",
                  "type": "string"
                },
                {
                  "internalType": "string",
                  "name": "about",
                  "type": "string"
                },
                {
                  "internalType": "address payable",
                  "name": "createdBy",
                  "type": "address"
                },
                {
                  "internalType": "uint256",
                  "name": "createdAt",
                  "type": "uint256"
                }
              ],
              "internalType": "struct Disscord.Server",
              "name": "server",
              "type": "tuple"
            },
            {
              "components": [
                {
                  "internalType": "bytes32",
                  "name": "id",
                  "type": "bytes32"
                },
                {
                  "internalType": "string",
                  "name": "username",
                  "type": "string"
                },
                {
                  "internalType": "address",
                  "name": "userAddress",
                  "type": "address"
                },
                {
                  "internalType": "uint256",
                  "name": "createdAt",
                  "type": "uint256"
                },
                {
                  "internalType": "uint256",
                  "name": "updatedAt",
                  "type": "uint256"
                }
              ],
              "internalType": "struct Disscord.User",
              "name": "user",
              "type": "tuple"
            },
            {
              "internalType": "uint256",
              "name": "createdAt",
              "type": "uint256"
            }
          ],
          "internalType": "struct Disscord.ServerUser[]",
          "name": "",
          "type": "tuple[]"
        }
      ],
      "stateMutability": "view",
      "type": "function"
    },
    {
      "inputs": [],
      "name": "getServers",
      "outputs": [
        {
          "components": [
            {
              "internalType": "bytes32",
              "name": "id",
              "type": "bytes32"
            },
            {
              "internalType": "string",
              "name": "name",
              "type": "string"
            },
            {
              "internalType": "string",
              "name": "about",
              "type": "string"
            },
            {
              "internalType": "address payable",
              "name": "createdBy",
              "type": "address"
            },
            {
              "internalType": "uint256",
              "name": "createdAt",
              "type": "uint256"
            }
          ],
          "internalType": "struct Disscord.Server[]",
          "name": "",
          "type": "tuple[]"
        }
      ],
      "stateMutability": "view",
      "type": "function"
    },
    {
      "inputs": [
        {
          "internalType": "bytes32",
          "name": "_serverId",
          "type": "bytes32"
        },
        {
          "internalType": "bytes32",
          "name": "_channelId",
          "type": "bytes32"
        }
      ],
      "name": "joinChannel",
      "outputs": [
        {
          "components": [
            {
              "internalType": "bytes32",
              "name": "serverId",
              "type": "bytes32"
            },
            {
              "internalType": "bytes32",
              "name": "channelId",
              "type": "bytes32"
            },
            {
              "internalType": "address",
              "name": "user",
              "type": "address"
            },
            {
              "internalType": "uint256",
              "name": "createdAt",
              "type": "uint256"
            }
          ],
          "internalType": "struct Disscord.ServerChannelUser",
          "name": "",
          "type": "tuple"
        }
      ],
      "stateMutability": "nonpayable",
      "type": "function"
    },
    {
      "inputs": [
        {
          "internalType": "string",
          "name": "_username",
          "type": "string"
        },
        {
          "internalType": "bytes32",
          "name": "_serverId",
          "type": "bytes32"
        }
      ],
      "name": "joinServer",
      "outputs": [
        {
          "components": [
            {
              "components": [
                {
                  "internalType": "bytes32",
                  "name": "id",
                  "type": "bytes32"
                },
                {
                  "internalType": "string",
                  "name": "name",
                  "type": "string"
                },
                {
                  "internalType": "string",
                  "name": "about",
                  "type": "string"
                },
                {
                  "internalType": "address payable",
                  "name": "createdBy",
                  "type": "address"
                },
                {
                  "internalType": "uint256",
                  "name": "createdAt",
                  "type": "uint256"
                }
              ],
              "internalType": "struct Disscord.Server",
              "name": "server",
              "type": "tuple"
            },
            {
              "components": [
                {
                  "internalType": "bytes32",
                  "name": "id",
                  "type": "bytes32"
                },
                {
                  "internalType": "string",
                  "name": "username",
                  "type": "string"
                },
                {
                  "internalType": "address",
                  "name": "userAddress",
                  "type": "address"
                },
                {
                  "internalType": "uint256",
                  "name": "createdAt",
                  "type": "uint256"
                },
                {
                  "internalType": "uint256",
                  "name": "updatedAt",
                  "type": "uint256"
                }
              ],
              "internalType": "struct Disscord.User",
              "name": "user",
              "type": "tuple"
            },
            {
              "internalType": "uint256",
              "name": "createdAt",
              "type": "uint256"
            }
          ],
          "internalType": "struct Disscord.ServerUser",
          "name": "",
          "type": "tuple"
        }
      ],
      "stateMutability": "nonpayable",
      "type": "function"
    },
    {
      "inputs": [
        {
          "internalType": "uint256",
          "name": "",
          "type": "uint256"
        }
      ],
      "name": "messages",
      "outputs": [
        {
          "internalType": "bytes32",
          "name": "id",
          "type": "bytes32"
        },
        {
          "internalType": "string",
          "name": "message",
          "type": "string"
        },
        {
          "internalType": "bytes32",
          "name": "serverId",
          "type": "bytes32"
        },
        {
          "internalType": "bytes32",
          "name": "channelId",
          "type": "bytes32"
        },
        {
          "internalType": "address",
          "name": "createdBy",
          "type": "address"
        },
        {
          "internalType": "uint256",
          "name": "createdAt",
          "type": "uint256"
        },
        {
          "internalType": "uint256",
          "name": "updatedAt",
          "type": "uint256"
        }
      ],
      "stateMutability": "view",
      "type": "function"
    },
    {
      "inputs": [
        {
          "internalType": "uint256",
          "name": "",
          "type": "uint256"
        }
      ],
      "name": "replies",
      "outputs": [
        {
          "internalType": "bytes32",
          "name": "id",
          "type": "bytes32"
        },
        {
          "internalType": "string",
          "name": "message",
          "type": "string"
        },
        {
          "internalType": "bytes32",
          "name": "parentMessageId",
          "type": "bytes32"
        },
        {
          "internalType": "bytes32",
          "name": "channelId",
          "type": "bytes32"
        },
        {
          "internalType": "bytes32",
          "name": "serverId",
          "type": "bytes32"
        },
        {
          "internalType": "address",
          "name": "createdBy",
          "type": "address"
        },
        {
          "internalType": "uint256",
          "name": "createdAt",
          "type": "uint256"
        },
        {
          "internalType": "uint256",
          "name": "updatedAt",
          "type": "uint256"
        }
      ],
      "stateMutability": "view",
      "type": "function"
    },
    {
      "inputs": [
        {
          "internalType": "bytes32",
          "name": "_serverId",
          "type": "bytes32"
        },
        {
          "internalType": "bytes32",
          "name": "_channelId",
          "type": "bytes32"
        },
        {
          "internalType": "string",
          "name": "_message",
          "type": "string"
        }
      ],
      "name": "sendMessage",
      "outputs": [
        {
          "components": [
            {
              "internalType": "bytes32",
              "name": "id",
              "type": "bytes32"
            },
            {
              "internalType": "string",
              "name": "message",
              "type": "string"
            },
            {
              "internalType": "bytes32",
              "name": "serverId",
              "type": "bytes32"
            },
            {
              "internalType": "bytes32",
              "name": "channelId",
              "type": "bytes32"
            },
            {
              "internalType": "address",
              "name": "createdBy",
              "type": "address"
            },
            {
              "internalType": "uint256",
              "name": "createdAt",
              "type": "uint256"
            },
            {
              "internalType": "uint256",
              "name": "updatedAt",
              "type": "uint256"
            }
          ],
          "internalType": "struct Disscord.Message",
          "name": "",
          "type": "tuple"
        }
      ],
      "stateMutability": "nonpayable",
      "type": "function"
    },
    {
      "inputs": [
        {
          "internalType": "uint256",
          "name": "",
          "type": "uint256"
        }
      ],
      "name": "serverChannelUsers",
      "outputs": [
        {
          "internalType": "bytes32",
          "name": "serverId",
          "type": "bytes32"
        },
        {
          "internalType": "bytes32",
          "name": "channelId",
          "type": "bytes32"
        },
        {
          "internalType": "address",
          "name": "user",
          "type": "address"
        },
        {
          "internalType": "uint256",
          "name": "createdAt",
          "type": "uint256"
        }
      ],
      "stateMutability": "view",
      "type": "function"
    },
    {
      "inputs": [
        {
          "internalType": "uint256",
          "name": "",
          "type": "uint256"
        }
      ],
      "name": "serverChannels",
      "outputs": [
        {
          "components": [
            {
              "internalType": "bytes32",
              "name": "id",
              "type": "bytes32"
            },
            {
              "internalType": "string",
              "name": "name",
              "type": "string"
            },
            {
              "internalType": "string",
              "name": "about",
              "type": "string"
            },
            {
              "internalType": "address payable",
              "name": "createdBy",
              "type": "address"
            },
            {
              "internalType": "uint256",
              "name": "createdAt",
              "type": "uint256"
            }
          ],
          "internalType": "struct Disscord.Server",
          "name": "server",
          "type": "tuple"
        },
        {
          "components": [
            {
              "internalType": "bytes32",
              "name": "id",
              "type": "bytes32"
            },
            {
              "internalType": "string",
              "name": "name",
              "type": "string"
            },
            {
              "internalType": "string",
              "name": "about",
              "type": "string"
            },
            {
              "internalType": "bytes32",
              "name": "serverId",
              "type": "bytes32"
            },
            {
              "internalType": "address payable",
              "name": "createdBy",
              "type": "address"
            },
            {
              "internalType": "uint256",
              "name": "createdAt",
              "type": "uint256"
            },
            {
              "internalType": "uint256",
              "name": "updatedAt",
              "type": "uint256"
            }
          ],
          "internalType": "struct Disscord.Channel",
          "name": "channel",
          "type": "tuple"
        },
        {
          "internalType": "uint256",
          "name": "createdAt",
          "type": "uint256"
        }
      ],
      "stateMutability": "view",
      "type": "function"
    },
    {
      "inputs": [
        {
          "internalType": "uint256",
          "name": "",
          "type": "uint256"
        }
      ],
      "name": "serverUsers",
      "outputs": [
        {
          "components": [
            {
              "internalType": "bytes32",
              "name": "id",
              "type": "bytes32"
            },
            {
              "internalType": "string",
              "name": "name",
              "type": "string"
            },
            {
              "internalType": "string",
              "name": "about",
              "type": "string"
            },
            {
              "internalType": "address payable",
              "name": "createdBy",
              "type": "address"
            },
            {
              "internalType": "uint256",
              "name": "createdAt",
              "type": "uint256"
            }
          ],
          "internalType": "struct Disscord.Server",
          "name": "server",
          "type": "tuple"
        },
        {
          "components": [
            {
              "internalType": "bytes32",
              "name": "id",
              "type": "bytes32"
            },
            {
              "internalType": "string",
              "name": "username",
              "type": "string"
            },
            {
              "internalType": "address",
              "name": "userAddress",
              "type": "address"
            },
            {
              "internalType": "uint256",
              "name": "createdAt",
              "type": "uint256"
            },
            {
              "internalType": "uint256",
              "name": "updatedAt",
              "type": "uint256"
            }
          ],
          "internalType": "struct Disscord.User",
          "name": "user",
          "type": "tuple"
        },
        {
          "internalType": "uint256",
          "name": "createdAt",
          "type": "uint256"
        }
      ],
      "stateMutability": "view",
      "type": "function"
    },
    {
      "inputs": [
        {
          "internalType": "uint256",
          "name": "",
          "type": "uint256"
        }
      ],
      "name": "servers",
      "outputs": [
        {
          "internalType": "bytes32",
          "name": "id",
          "type": "bytes32"
        },
        {
          "internalType": "string",
          "name": "name",
          "type": "string"
        },
        {
          "internalType": "string",
          "name": "about",
          "type": "string"
        },
        {
          "internalType": "address payable",
          "name": "createdBy",
          "type": "address"
        },
        {
          "internalType": "uint256",
          "name": "createdAt",
          "type": "uint256"
        }
      ],
      "stateMutability": "view",
      "type": "function"
    },
    {
      "inputs": [
        {
          "internalType": "uint256",
          "name": "",
          "type": "uint256"
        }
      ],
      "name": "users",
      "outputs": [
        {
          "internalType": "bytes32",
          "name": "id",
          "type": "bytes32"
        },
        {
          "internalType": "string",
          "name": "username",
          "type": "string"
        },
        {
          "internalType": "address",
          "name": "userAddress",
          "type": "address"
        },
        {
          "internalType": "uint256",
          "name": "createdAt",
          "type": "uint256"
        },
        {
          "internalType": "uint256",
          "name": "updatedAt",
          "type": "uint256"
        }
      ],
      "stateMutability": "view",
      "type": "function"
    }
  ],
  "bytecode": "0x608060405234801561001057600080fd5b50615a0880620000216000396000f3fe608060405234801561001057600080fd5b506004361061018d5760003560e01c80637bfc3ce7116100de5780639575f6ac116100975780639a3afffa116100715780639a3afffa146105745780639f6e446f146105a4578063e5949b5d146105d4578063e9ad32391461060a5761018d565b80639575f6ac146104f6578063969ac14514610514578063996f47ee146105445761018d565b80637bfc3ce7146103d45780637c77a97d146104045780637eb66acd1461043657806381df6aeb14610466578063872ec4781461049657806393a93dcf146104c65761018d565b806339617f0e1161014b5780635c7c366d116101255780635c7c366d1461032d5780635cf0f357146103645780635ff6cbf31461039857806375c1c7e7146103b65761018d565b806339617f0e1461029b5780633a8a5527146102cb57806354573f56146102fb5761018d565b8062dd60dc146101925780630d80fefd146101b0578063117058c6146101e657806317b5c36d14610219578063365b98b214610249578063370957f31461027d575b600080fd5b61019a610628565b6040516101a791906140a4565b60405180910390f35b6101ca60048036038101906101c59190614106565b6109e9565b6040516101dd97969594939291906141bc565b60405180910390f35b61020060048036038101906101fb9190614106565b610ae3565b6040516102109493929190614232565b60405180910390f35b610233600480360381019061022e91906142a3565b610b43565b6040516102409190614355565b60405180910390f35b610263600480360381019061025e9190614106565b610d2e565b604051610274959493929190614377565b60405180910390f35b610285610e1c565b6040516102929190614560565b60405180910390f35b6102b560048036038101906102b091906146e3565b611141565b6040516102c29190614796565b60405180910390f35b6102e560048036038101906102e091906147b8565b61140a565b6040516102f29190614355565b60405180910390f35b61031560048036038101906103109190614106565b6115f4565b60405161032493929190614921565b60405180910390f35b61034760048036038101906103429190614106565b611972565b60405161035b989796959493929190614966565b60405180910390f35b61037e60048036038101906103799190614106565b611a72565b60405161038f9594939291906149fa565b60405180910390f35b6103a0611be8565b6040516103ad9190614bb9565b60405180910390f35b6103be611d61565b6040516103cb9190614c9d565b60405180910390f35b6103ee60048036038101906103e99190614cbf565b611f4e565b6040516103fb9190614d37565b60405180910390f35b61041e60048036038101906104199190614106565b6120ab565b60405161042d93929190614d59565b60405180910390f35b610450600480360381019061044b9190614d9e565b61238d565b60405161045d9190614796565b60405180910390f35b610480600480360381019061047b9190614dde565b612770565b60405161048d9190614d37565b60405180910390f35b6104b060048036038101906104ab9190614e0b565b61299b565b6040516104bd9190614ea0565b60405180910390f35b6104e060048036038101906104db9190614d9e565b612a9e565b6040516104ed9190614ea0565b60405180910390f35b6104fe612c29565b60405161050b9190614f7d565b60405180910390f35b61052e60048036038101906105299190614e0b565b612e2a565b60405161053b9190614ff6565b60405180910390f35b61055e60048036038101906105599190615018565b61325d565b60405161056b91906150a3565b60405180910390f35b61058e60048036038101906105899190614dde565b613582565b60405161059b91906150a3565b60405180910390f35b6105be60048036038101906105b991906150c5565b6137bd565b6040516105cb91906151d0565b60405180910390f35b6105ee60048036038101906105e99190614106565b613930565b60405161060197969594939291906151f2565b60405180910390f35b610612613ab2565b60405161061f9190615373565b60405180910390f35b60606004805480602002602001604051908101604052809291908181526020016000905b828210156109e057838290600052602060002090600d0201604051806060016040529081600082016040518060a001604052908160008201548152602001600182018054610699906153c4565b80601f01602080910402602001604051908101604052809291908181526020018280546106c5906153c4565b80156107125780601f106106e757610100808354040283529160200191610712565b820191906000526020600020905b8154815290600101906020018083116106f557829003601f168201915b5050505050815260200160028201805461072b906153c4565b80601f0160208091040260200160405190810160405280929190818152602001828054610757906153c4565b80156107a45780601f10610779576101008083540402835291602001916107a4565b820191906000526020600020905b81548152906001019060200180831161078757829003601f168201915b505050505081526020016003820160009054906101000a900473ffffffffffffffffffffffffffffffffffffffff1673ffffffffffffffffffffffffffffffffffffffff1673ffffffffffffffffffffffffffffffffffffffff1681526020016004820154815250508152602001600582016040518060e00160405290816000820154815260200160018201805461083b906153c4565b80601f0160208091040260200160405190810160405280929190818152602001828054610867906153c4565b80156108b45780601f10610889576101008083540402835291602001916108b4565b820191906000526020600020905b81548152906001019060200180831161089757829003601f168201915b505050505081526020016002820180546108cd906153c4565b80601f01602080910402602001604051908101604052809291908181526020018280546108f9906153c4565b80156109465780601f1061091b57610100808354040283529160200191610946565b820191906000526020600020905b81548152906001019060200180831161092957829003601f168201915b50505050508152602001600382015481526020016004820160009054906101000a900473ffffffffffffffffffffffffffffffffffffffff1673ffffffffffffffffffffffffffffffffffffffff1673ffffffffffffffffffffffffffffffffffffffff168152602001600582015481526020016006820154815250508152602001600c820154815250508152602001906001019061064c565b50505050905090565b600681815481106109f957600080fd5b9060005260206000209060070201600091509050806000015490806001018054610a22906153c4565b80601f0160208091040260200160405190810160405280929190818152602001828054610a4e906153c4565b8015610a9b5780601f10610a7057610100808354040283529160200191610a9b565b820191906000526020600020905b815481529060010190602001808311610a7e57829003601f168201915b5050505050908060020154908060030154908060040160009054906101000a900473ffffffffffffffffffffffffffffffffffffffff16908060050154908060060154905087565b60058181548110610af357600080fd5b90600052602060002090600402016000915090508060000154908060010154908060020160009054906101000a900473ffffffffffffffffffffffffffffffffffffffff16908060030154905084565b610b4b613b85565b610b53613b85565b60005b600280549050811015610d24578373ffffffffffffffffffffffffffffffffffffffff1660028281548110610b8e57610b8d6153f5565b5b906000526020600020906005020160020160009054906101000a900473ffffffffffffffffffffffffffffffffffffffff1673ffffffffffffffffffffffffffffffffffffffff1603610d115760028181548110610bef57610bee6153f5565b5b90600052602060002090600502016040518060a001604052908160008201548152602001600182018054610c22906153c4565b80601f0160208091040260200160405190810160405280929190818152602001828054610c4e906153c4565b8015610c9b5780601f10610c7057610100808354040283529160200191610c9b565b820191906000526020600020905b815481529060010190602001808311610c7e57829003601f168201915b505050505081526020016002820160009054906101000a900473ffffffffffffffffffffffffffffffffffffffff1673ffffffffffffffffffffffffffffffffffffffff1673ffffffffffffffffffffffffffffffffffffffff1681526020016003820154815260200160048201548152505091505b8080610d1c90615453565b915050610b56565b5080915050919050565b60028181548110610d3e57600080fd5b9060005260206000209060050201600091509050806000015490806001018054610d67906153c4565b80601f0160208091040260200160405190810160405280929190818152602001828054610d93906153c4565b8015610de05780601f10610db557610100808354040283529160200191610de0565b820191906000526020600020905b815481529060010190602001808311610dc357829003601f168201915b5050505050908060020160009054906101000a900473ffffffffffffffffffffffffffffffffffffffff16908060030154908060040154905085565b60606003805480602002602001604051908101604052809291908181526020016000905b8282101561113857838290600052602060002090600b0201604051806060016040529081600082016040518060a001604052908160008201548152602001600182018054610e8d906153c4565b80601f0160208091040260200160405190810160405280929190818152602001828054610eb9906153c4565b8015610f065780601f10610edb57610100808354040283529160200191610f06565b820191906000526020600020905b815481529060010190602001808311610ee957829003601f168201915b50505050508152602001600282018054610f1f906153c4565b80601f0160208091040260200160405190810160405280929190818152602001828054610f4b906153c4565b8015610f985780601f10610f6d57610100808354040283529160200191610f98565b820191906000526020600020905b815481529060010190602001808311610f7b57829003601f168201915b505050505081526020016003820160009054906101000a900473ffffffffffffffffffffffffffffffffffffffff1673ffffffffffffffffffffffffffffffffffffffff1673ffffffffffffffffffffffffffffffffffffffff1681526020016004820154815250508152602001600582016040518060a00160405290816000820154815260200160018201805461102f906153c4565b80601f016020809104026020016040519081016040528092919081815260200182805461105b906153c4565b80156110a85780601f1061107d576101008083540402835291602001916110a8565b820191906000526020600020905b81548152906001019060200180831161108b57829003601f168201915b505050505081526020016002820160009054906101000a900473ffffffffffffffffffffffffffffffffffffffff1673ffffffffffffffffffffffffffffffffffffffff1673ffffffffffffffffffffffffffffffffffffffff168152602001600382015481526020016004820154815250508152602001600a8201548152505081526020019060010190610e40565b50505050905090565b611149613bcd565b611151613b85565b4281606001818152505083833383606001516040516020016111769493929190615561565b6040516020818303038152906040528051906020012081600001818152505083816020018190525033816040019073ffffffffffffffffffffffffffffffffffffffff16908173ffffffffffffffffffffffffffffffffffffffff16815250506111de613bcd565b8181602001819052506111f084612770565b8160000181905250816060015181604001818152505060028290806001815401808255809150506001900390600052602060002090600502016000909190919091506000820151816000015560208201518160010190816112519190615757565b5060408201518160020160006101000a81548173ffffffffffffffffffffffffffffffffffffffff021916908373ffffffffffffffffffffffffffffffffffffffff1602179055506060820151816003015560808201518160040155505060038190806001815401808255809150506001900390600052602060002090600b02016000909190919091506000820151816000016000820151816000015560208201518160010190816113039190615757565b5060408201518160020190816113199190615757565b5060608201518160030160006101000a81548173ffffffffffffffffffffffffffffffffffffffff021916908373ffffffffffffffffffffffffffffffffffffffff1602179055506080820151816004015550506020820151816005016000820151816000015560208201518160010190816113959190615757565b5060408201518160020160006101000a81548173ffffffffffffffffffffffffffffffffffffffff021916908373ffffffffffffffffffffffffffffffffffffffff16021790555060608201518160030155608082015181600401555050604082015181600a01555050809250505092915050565b611412613b85565b61141a613b85565b60005b6002805490508110156115ea578360405160200161143b9190615829565b6040516020818303038152906040528051906020012060028281548110611465576114646153f5565b5b906000526020600020906005020160010160405160200161148691906158c3565b60405160208183030381529060405280519060200120146115d757600281815481106114b5576114b46153f5565b5b90600052602060002090600502016040518060a0016040529081600082015481526020016001820180546114e8906153c4565b80601f0160208091040260200160405190810160405280929190818152602001828054611514906153c4565b80156115615780601f1061153657610100808354040283529160200191611561565b820191906000526020600020905b81548152906001019060200180831161154457829003601f168201915b505050505081526020016002820160009054906101000a900473ffffffffffffffffffffffffffffffffffffffff1673ffffffffffffffffffffffffffffffffffffffff1673ffffffffffffffffffffffffffffffffffffffff1681526020016003820154815260200160048201548152505091505b80806115e290615453565b91505061141d565b5080915050919050565b6004818154811061160457600080fd5b90600052602060002090600d0201600091509050806000016040518060a001604052908160008201548152602001600182018054611641906153c4565b80601f016020809104026020016040519081016040528092919081815260200182805461166d906153c4565b80156116ba5780601f1061168f576101008083540402835291602001916116ba565b820191906000526020600020905b81548152906001019060200180831161169d57829003601f168201915b505050505081526020016002820180546116d3906153c4565b80601f01602080910402602001604051908101604052809291908181526020018280546116ff906153c4565b801561174c5780601f106117215761010080835404028352916020019161174c565b820191906000526020600020905b81548152906001019060200180831161172f57829003601f168201915b505050505081526020016003820160009054906101000a900473ffffffffffffffffffffffffffffffffffffffff1673ffffffffffffffffffffffffffffffffffffffff1673ffffffffffffffffffffffffffffffffffffffff16815260200160048201548152505090806005016040518060e0016040529081600082015481526020016001820180546117df906153c4565b80601f016020809104026020016040519081016040528092919081815260200182805461180b906153c4565b80156118585780601f1061182d57610100808354040283529160200191611858565b820191906000526020600020905b81548152906001019060200180831161183b57829003601f168201915b50505050508152602001600282018054611871906153c4565b80601f016020809104026020016040519081016040528092919081815260200182805461189d906153c4565b80156118ea5780601f106118bf576101008083540402835291602001916118ea565b820191906000526020600020905b8154815290600101906020018083116118cd57829003601f168201915b50505050508152602001600382015481526020016004820160009054906101000a900473ffffffffffffffffffffffffffffffffffffffff1673ffffffffffffffffffffffffffffffffffffffff1673ffffffffffffffffffffffffffffffffffffffff168152602001600582015481526020016006820154815250509080600c0154905083565b6007818154811061198257600080fd5b90600052602060002090600802016000915090508060000154908060010180546119ab906153c4565b80601f01602080910402602001604051908101604052809291908181526020018280546119d7906153c4565b8015611a245780601f106119f957610100808354040283529160200191611a24565b820191906000526020600020905b815481529060010190602001808311611a0757829003601f168201915b5050505050908060020154908060030154908060040154908060050160009054906101000a900473ffffffffffffffffffffffffffffffffffffffff16908060060154908060070154905088565b60008181548110611a8257600080fd5b9060005260206000209060050201600091509050806000015490806001018054611aab906153c4565b80601f0160208091040260200160405190810160405280929190818152602001828054611ad7906153c4565b8015611b245780601f10611af957610100808354040283529160200191611b24565b820191906000526020600020905b815481529060010190602001808311611b0757829003601f168201915b505050505090806002018054611b39906153c4565b80601f0160208091040260200160405190810160405280929190818152602001828054611b65906153c4565b8015611bb25780601f10611b8757610100808354040283529160200191611bb2565b820191906000526020600020905b815481529060010190602001808311611b9557829003601f168201915b5050505050908060030160009054906101000a900473ffffffffffffffffffffffffffffffffffffffff16908060040154905085565b60606006805480602002602001604051908101604052809291908181526020016000905b82821015611d5857838290600052602060002090600702016040518060e001604052908160008201548152602001600182018054611c49906153c4565b80601f0160208091040260200160405190810160405280929190818152602001828054611c75906153c4565b8015611cc25780601f10611c9757610100808354040283529160200191611cc2565b820191906000526020600020905b815481529060010190602001808311611ca557829003601f168201915b5050505050815260200160028201548152602001600382015481526020016004820160009054906101000a900473ffffffffffffffffffffffffffffffffffffffff1673ffffffffffffffffffffffffffffffffffffffff1673ffffffffffffffffffffffffffffffffffffffff1681526020016005820154815260200160068201548152505081526020019060010190611c0c565b50505050905090565b60606000805480602002602001604051908101604052809291908181526020016000905b82821015611f4557838290600052602060002090600502016040518060a001604052908160008201548152602001600182018054611dc2906153c4565b80601f0160208091040260200160405190810160405280929190818152602001828054611dee906153c4565b8015611e3b5780601f10611e1057610100808354040283529160200191611e3b565b820191906000526020600020905b815481529060010190602001808311611e1e57829003601f168201915b50505050508152602001600282018054611e54906153c4565b80601f0160208091040260200160405190810160405280929190818152602001828054611e80906153c4565b8015611ecd5780601f10611ea257610100808354040283529160200191611ecd565b820191906000526020600020905b815481529060010190602001808311611eb057829003601f168201915b505050505081526020016003820160009054906101000a900473ffffffffffffffffffffffffffffffffffffffff1673ffffffffffffffffffffffffffffffffffffffff1673ffffffffffffffffffffffffffffffffffffffff16815260200160048201548152505081526020019060010190611d85565b50505050905090565b611f56613bfa565b611f5e613bfa565b428160800181815250508383338360800151604051602001611f8394939291906158da565b6040516020818303038152906040528051906020012081600001818152505083816020018190525082816040018190525033816060019073ffffffffffffffffffffffffffffffffffffffff16908173ffffffffffffffffffffffffffffffffffffffff168152505060008190806001815401808255809150506001900390600052602060002090600502016000909190919091506000820151816000015560208201518160010190816120379190615757565b50604082015181600201908161204d9190615757565b5060608201518160030160006101000a81548173ffffffffffffffffffffffffffffffffffffffff021916908373ffffffffffffffffffffffffffffffffffffffff1602179055506080820151816004015550508091505092915050565b600381815481106120bb57600080fd5b90600052602060002090600b0201600091509050806000016040518060a0016040529081600082015481526020016001820180546120f8906153c4565b80601f0160208091040260200160405190810160405280929190818152602001828054612124906153c4565b80156121715780601f1061214657610100808354040283529160200191612171565b820191906000526020600020905b81548152906001019060200180831161215457829003601f168201915b5050505050815260200160028201805461218a906153c4565b80601f01602080910402602001604051908101604052809291908181526020018280546121b6906153c4565b80156122035780601f106121d857610100808354040283529160200191612203565b820191906000526020600020905b8154815290600101906020018083116121e657829003601f168201915b505050505081526020016003820160009054906101000a900473ffffffffffffffffffffffffffffffffffffffff1673ffffffffffffffffffffffffffffffffffffffff1673ffffffffffffffffffffffffffffffffffffffff16815260200160048201548152505090806005016040518060a001604052908160008201548152602001600182018054612296906153c4565b80601f01602080910402602001604051908101604052809291908181526020018280546122c2906153c4565b801561230f5780601f106122e45761010080835404028352916020019161230f565b820191906000526020600020905b8154815290600101906020018083116122f257829003601f168201915b505050505081526020016002820160009054906101000a900473ffffffffffffffffffffffffffffffffffffffff1673ffffffffffffffffffffffffffffffffffffffff1673ffffffffffffffffffffffffffffffffffffffff168152602001600382015481526020016004820154815250509080600a0154905083565b612395613bcd565b61239d613bcd565b60005b6003805490508110156127655784600382815481106123c2576123c16153f5565b5b90600052602060002090600b02016000016000015414801561245757508373ffffffffffffffffffffffffffffffffffffffff166003828154811061240a576124096153f5565b5b90600052602060002090600b020160050160020160009054906101000a900473ffffffffffffffffffffffffffffffffffffffff1673ffffffffffffffffffffffffffffffffffffffff16145b1561275257600381815481106124705761246f6153f5565b5b90600052602060002090600b0201604051806060016040529081600082016040518060a0016040529081600082015481526020016001820180546124b3906153c4565b80601f01602080910402602001604051908101604052809291908181526020018280546124df906153c4565b801561252c5780601f106125015761010080835404028352916020019161252c565b820191906000526020600020905b81548152906001019060200180831161250f57829003601f168201915b50505050508152602001600282018054612545906153c4565b80601f0160208091040260200160405190810160405280929190818152602001828054612571906153c4565b80156125be5780601f10612593576101008083540402835291602001916125be565b820191906000526020600020905b8154815290600101906020018083116125a157829003601f168201915b505050505081526020016003820160009054906101000a900473ffffffffffffffffffffffffffffffffffffffff1673ffffffffffffffffffffffffffffffffffffffff1673ffffffffffffffffffffffffffffffffffffffff1681526020016004820154815250508152602001600582016040518060a001604052908160008201548152602001600182018054612655906153c4565b80601f0160208091040260200160405190810160405280929190818152602001828054612681906153c4565b80156126ce5780601f106126a3576101008083540402835291602001916126ce565b820191906000526020600020905b8154815290600101906020018083116126b157829003601f168201915b505050505081526020016002820160009054906101000a900473ffffffffffffffffffffffffffffffffffffffff1673ffffffffffffffffffffffffffffffffffffffff1673ffffffffffffffffffffffffffffffffffffffff168152602001600382015481526020016004820154815250508152602001600a8201548152505091505b808061275d90615453565b9150506123a0565b508091505092915050565b612778613bfa565b612780613bfa565b60005b6000805490508110156129915783600082815481106127a5576127a46153f5565b5b9060005260206000209060050201600001540361297e57600081815481106127d0576127cf6153f5565b5b90600052602060002090600502016040518060a001604052908160008201548152602001600182018054612803906153c4565b80601f016020809104026020016040519081016040528092919081815260200182805461282f906153c4565b801561287c5780601f106128515761010080835404028352916020019161287c565b820191906000526020600020905b81548152906001019060200180831161285f57829003601f168201915b50505050508152602001600282018054612895906153c4565b80601f01602080910402602001604051908101604052809291908181526020018280546128c1906153c4565b801561290e5780601f106128e35761010080835404028352916020019161290e565b820191906000526020600020905b8154815290600101906020018083116128f157829003601f168201915b505050505081526020016003820160009054906101000a900473ffffffffffffffffffffffffffffffffffffffff1673ffffffffffffffffffffffffffffffffffffffff1673ffffffffffffffffffffffffffffffffffffffff1681526020016004820154815250509150612991565b808061298990615453565b915050612783565b5080915050919050565b6129a3613c42565b6129ab613c42565b42816060018181525050838160000181815250508281602001818152505033816040019073ffffffffffffffffffffffffffffffffffffffff16908173ffffffffffffffffffffffffffffffffffffffff16815250506005819080600181540180825580915050600190039060005260206000209060040201600090919091909150600082015181600001556020820151816001015560408201518160020160006101000a81548173ffffffffffffffffffffffffffffffffffffffff021916908373ffffffffffffffffffffffffffffffffffffffff1602179055506060820151816003015550508091505092915050565b612aa6613c42565b612aae613c42565b60005b600580549050811015612c1e578460058281548110612ad357612ad26153f5565b5b906000526020600020906004020160010154148015612b6257508373ffffffffffffffffffffffffffffffffffffffff1660058281548110612b1857612b176153f5565b5b906000526020600020906004020160020160009054906101000a900473ffffffffffffffffffffffffffffffffffffffff1673ffffffffffffffffffffffffffffffffffffffff16145b15612c0b5760058181548110612b7b57612b7a6153f5565b5b906000526020600020906004020160405180608001604052908160008201548152602001600182015481526020016002820160009054906101000a900473ffffffffffffffffffffffffffffffffffffffff1673ffffffffffffffffffffffffffffffffffffffff1673ffffffffffffffffffffffffffffffffffffffff16815260200160038201548152505091505b8080612c1690615453565b915050612ab1565b508091505092915050565b60606001805480602002602001604051908101604052809291908181526020016000905b82821015612e2157838290600052602060002090600702016040518060e001604052908160008201548152602001600182018054612c8a906153c4565b80601f0160208091040260200160405190810160405280929190818152602001828054612cb6906153c4565b8015612d035780601f10612cd857610100808354040283529160200191612d03565b820191906000526020600020905b815481529060010190602001808311612ce657829003601f168201915b50505050508152602001600282018054612d1c906153c4565b80601f0160208091040260200160405190810160405280929190818152602001828054612d48906153c4565b8015612d955780601f10612d6a57610100808354040283529160200191612d95565b820191906000526020600020905b815481529060010190602001808311612d7857829003601f168201915b50505050508152602001600382015481526020016004820160009054906101000a900473ffffffffffffffffffffffffffffffffffffffff1673ffffffffffffffffffffffffffffffffffffffff1673ffffffffffffffffffffffffffffffffffffffff1681526020016005820154815260200160068201548152505081526020019060010190612c4d565b50505050905090565b612e32613c86565b612e3a613c86565b60005b600480549050811015613252578460048281548110612e5f57612e5e6153f5565b5b90600052602060002090600d020160000160000154148015612ea857508360048281548110612e9157612e906153f5565b5b90600052602060002090600d020160050160000154145b1561323f5760048181548110612ec157612ec06153f5565b5b90600052602060002090600d0201604051806060016040529081600082016040518060a001604052908160008201548152602001600182018054612f04906153c4565b80601f0160208091040260200160405190810160405280929190818152602001828054612f30906153c4565b8015612f7d5780601f10612f5257610100808354040283529160200191612f7d565b820191906000526020600020905b815481529060010190602001808311612f6057829003601f168201915b50505050508152602001600282018054612f96906153c4565b80601f0160208091040260200160405190810160405280929190818152602001828054612fc2906153c4565b801561300f5780601f10612fe45761010080835404028352916020019161300f565b820191906000526020600020905b815481529060010190602001808311612ff257829003601f168201915b505050505081526020016003820160009054906101000a900473ffffffffffffffffffffffffffffffffffffffff1673ffffffffffffffffffffffffffffffffffffffff1673ffffffffffffffffffffffffffffffffffffffff1681526020016004820154815250508152602001600582016040518060e0016040529081600082015481526020016001820180546130a6906153c4565b80601f01602080910402602001604051908101604052809291908181526020018280546130d2906153c4565b801561311f5780601f106130f45761010080835404028352916020019161311f565b820191906000526020600020905b81548152906001019060200180831161310257829003601f168201915b50505050508152602001600282018054613138906153c4565b80601f0160208091040260200160405190810160405280929190818152602001828054613164906153c4565b80156131b15780601f10613186576101008083540402835291602001916131b1565b820191906000526020600020905b81548152906001019060200180831161319457829003601f168201915b50505050508152602001600382015481526020016004820160009054906101000a900473ffffffffffffffffffffffffffffffffffffffff1673ffffffffffffffffffffffffffffffffffffffff1673ffffffffffffffffffffffffffffffffffffffff168152602001600582015481526020016006820154815250508152602001600c8201548152505091505b808061324a90615453565b915050612e3d565b508091505092915050565b613265613cb3565b61326d613cb3565b428160a0018181525050848484338460a00151604051602001613294959493929190615920565b604051602081830303815290604052805190602001208160000181815250508481602001819052508381604001819052508281606001818152505033816080019073ffffffffffffffffffffffffffffffffffffffff16908173ffffffffffffffffffffffffffffffffffffffff1681525050600061331284612770565b905061331c613c86565b8181600001819052508281602001819052508260a0015181604001818152505060018390806001815401808255809150506001900390600052602060002090600702016000909190919091506000820151816000015560208201518160010190816133879190615757565b50604082015181600201908161339d9190615757565b506060820151816003015560808201518160040160006101000a81548173ffffffffffffffffffffffffffffffffffffffff021916908373ffffffffffffffffffffffffffffffffffffffff16021790555060a0820151816005015560c08201518160060155505060048190806001815401808255809150506001900390600052602060002090600d02016000909190919091506000820151816000016000820151816000015560208201518160010190816134599190615757565b50604082015181600201908161346f9190615757565b5060608201518160030160006101000a81548173ffffffffffffffffffffffffffffffffffffffff021916908373ffffffffffffffffffffffffffffffffffffffff1602179055506080820151816004015550506020820151816005016000820151816000015560208201518160010190816134eb9190615757565b5060408201518160020190816135019190615757565b506060820151816003015560808201518160040160006101000a81548173ffffffffffffffffffffffffffffffffffffffff021916908373ffffffffffffffffffffffffffffffffffffffff16021790555060a0820151816005015560c082015181600601555050604082015181600c015550508293505050509392505050565b61358a613cb3565b613592613cb3565b60005b6001805490508110156137b35783600182815481106135b7576135b66153f5565b5b906000526020600020906007020160000154036137a057600181815481106135e2576135e16153f5565b5b90600052602060002090600702016040518060e001604052908160008201548152602001600182018054613615906153c4565b80601f0160208091040260200160405190810160405280929190818152602001828054613641906153c4565b801561368e5780601f106136635761010080835404028352916020019161368e565b820191906000526020600020905b81548152906001019060200180831161367157829003601f168201915b505050505081526020016002820180546136a7906153c4565b80601f01602080910402602001604051908101604052809291908181526020018280546136d3906153c4565b80156137205780601f106136f557610100808354040283529160200191613720565b820191906000526020600020905b81548152906001019060200180831161370357829003601f168201915b50505050508152602001600382015481526020016004820160009054906101000a900473ffffffffffffffffffffffffffffffffffffffff1673ffffffffffffffffffffffffffffffffffffffff1673ffffffffffffffffffffffffffffffffffffffff1681526020016005820154815260200160068201548152505091505b80806137ab90615453565b915050613595565b5080915050919050565b6137c5613d0c565b6137cd613d0c565b428160a0018181525050848484338460a001516040516020016137f4959493929190615977565b60405160208183030381529060405280519060200120816000018181525050828160200181905250848160400181815250508381606001818152505033816080019073ffffffffffffffffffffffffffffffffffffffff16908173ffffffffffffffffffffffffffffffffffffffff168152505060068190806001815401808255809150506001900390600052602060002090600702016000909190919091506000820151816000015560208201518160010190816138b39190615757565b50604082015181600201556060820151816003015560808201518160040160006101000a81548173ffffffffffffffffffffffffffffffffffffffff021916908373ffffffffffffffffffffffffffffffffffffffff16021790555060a0820151816005015560c082015181600601555050809150509392505050565b6001818154811061394057600080fd5b9060005260206000209060070201600091509050806000015490806001018054613969906153c4565b80601f0160208091040260200160405190810160405280929190818152602001828054613995906153c4565b80156139e25780601f106139b7576101008083540402835291602001916139e2565b820191906000526020600020905b8154815290600101906020018083116139c557829003601f168201915b5050505050908060020180546139f7906153c4565b80601f0160208091040260200160405190810160405280929190818152602001828054613a23906153c4565b8015613a705780601f10613a4557610100808354040283529160200191613a70565b820191906000526020600020905b815481529060010190602001808311613a5357829003601f168201915b5050505050908060030154908060040160009054906101000a900473ffffffffffffffffffffffffffffffffffffffff16908060050154908060060154905087565b60606005805480602002602001604051908101604052809291908181526020016000905b82821015613b7c578382906000526020600020906004020160405180608001604052908160008201548152602001600182015481526020016002820160009054906101000a900473ffffffffffffffffffffffffffffffffffffffff1673ffffffffffffffffffffffffffffffffffffffff1673ffffffffffffffffffffffffffffffffffffffff16815260200160038201548152505081526020019060010190613ad6565b50505050905090565b6040518060a001604052806000801916815260200160608152602001600073ffffffffffffffffffffffffffffffffffffffff16815260200160008152602001600081525090565b6040518060600160405280613be0613bfa565b8152602001613bed613b85565b8152602001600081525090565b6040518060a00160405280600080191681526020016060815260200160608152602001600073ffffffffffffffffffffffffffffffffffffffff168152602001600081525090565b60405180608001604052806000801916815260200160008019168152602001600073ffffffffffffffffffffffffffffffffffffffff168152602001600081525090565b6040518060600160405280613c99613bfa565b8152602001613ca6613cb3565b8152602001600081525090565b6040518060e0016040528060008019168152602001606081526020016060815260200160008019168152602001600073ffffffffffffffffffffffffffffffffffffffff16815260200160008152602001600081525090565b6040518060e0016040528060008019168152602001606081526020016000801916815260200160008019168152602001600073ffffffffffffffffffffffffffffffffffffffff16815260200160008152602001600081525090565b600081519050919050565b600082825260208201905092915050565b6000819050602082019050919050565b6000819050919050565b613da781613d94565b82525050565b600081519050919050565b600082825260208201905092915050565b60005b83811015613de7578082015181840152602081019050613dcc565b60008484015250505050565b6000601f19601f8301169050919050565b6000613e0f82613dad565b613e198185613db8565b9350613e29818560208601613dc9565b613e3281613df3565b840191505092915050565b600073ffffffffffffffffffffffffffffffffffffffff82169050919050565b6000613e6882613e3d565b9050919050565b613e7881613e5d565b82525050565b6000819050919050565b613e9181613e7e565b82525050565b600060a083016000830151613eaf6000860182613d9e565b5060208301518482036020860152613ec78282613e04565b91505060408301518482036040860152613ee18282613e04565b9150506060830151613ef66060860182613e6f565b506080830151613f096080860182613e88565b508091505092915050565b600060e083016000830151613f2c6000860182613d9e565b5060208301518482036020860152613f448282613e04565b91505060408301518482036040860152613f5e8282613e04565b9150506060830151613f736060860182613d9e565b506080830151613f866080860182613e6f565b5060a0830151613f9960a0860182613e88565b5060c0830151613fac60c0860182613e88565b508091505092915050565b60006060830160008301518482036000860152613fd48282613e97565b91505060208301518482036020860152613fee8282613f14565b91505060408301516140036040860182613e88565b508091505092915050565b600061401a8383613fb7565b905092915050565b6000602082019050919050565b600061403a82613d68565b6140448185613d73565b93508360208202850161405685613d84565b8060005b858110156140925784840389528151614073858261400e565b945061407e83614022565b925060208a0199505060018101905061405a565b50829750879550505050505092915050565b600060208201905081810360008301526140be818461402f565b905092915050565b6000604051905090565b600080fd5b600080fd5b6140e381613e7e565b81146140ee57600080fd5b50565b600081359050614100816140da565b92915050565b60006020828403121561411c5761411b6140d0565b5b600061412a848285016140f1565b91505092915050565b61413c81613d94565b82525050565b600082825260208201905092915050565b600061415e82613dad565b6141688185614142565b9350614178818560208601613dc9565b61418181613df3565b840191505092915050565b600061419782613e3d565b9050919050565b6141a78161418c565b82525050565b6141b681613e7e565b82525050565b600060e0820190506141d1600083018a614133565b81810360208301526141e38189614153565b90506141f26040830188614133565b6141ff6060830187614133565b61420c608083018661419e565b61421960a08301856141ad565b61422660c08301846141ad565b98975050505050505050565b60006080820190506142476000830187614133565b6142546020830186614133565b614261604083018561419e565b61426e60608301846141ad565b95945050505050565b6142808161418c565b811461428b57600080fd5b50565b60008135905061429d81614277565b92915050565b6000602082840312156142b9576142b86140d0565b5b60006142c78482850161428e565b91505092915050565b6142d98161418c565b82525050565b600060a0830160008301516142f76000860182613d9e565b506020830151848203602086015261430f8282613e04565b915050604083015161432460408601826142d0565b5060608301516143376060860182613e88565b50608083015161434a6080860182613e88565b508091505092915050565b6000602082019050818103600083015261436f81846142df565b905092915050565b600060a08201905061438c6000830188614133565b818103602083015261439e8187614153565b90506143ad604083018661419e565b6143ba60608301856141ad565b6143c760808301846141ad565b9695505050505050565b600081519050919050565b600082825260208201905092915050565b6000819050602082019050919050565b600060a0830160008301516144156000860182613d9e565b506020830151848203602086015261442d8282613e04565b915050604083015161444260408601826142d0565b5060608301516144556060860182613e88565b5060808301516144686080860182613e88565b508091505092915050565b600060608301600083015184820360008601526144908282613e97565b915050602083015184820360208601526144aa82826143fd565b91505060408301516144bf6040860182613e88565b508091505092915050565b60006144d68383614473565b905092915050565b6000602082019050919050565b60006144f6826143d1565b61450081856143dc565b935083602082028501614512856143ed565b8060005b8581101561454e578484038952815161452f85826144ca565b945061453a836144de565b925060208a01995050600181019050614516565b50829750879550505050505092915050565b6000602082019050818103600083015261457a81846144eb565b905092915050565b600080fd5b600080fd5b7f4e487b7100000000000000000000000000000000000000000000000000000000600052604160045260246000fd5b6145c482613df3565b810181811067ffffffffffffffff821117156145e3576145e261458c565b5b80604052505050565b60006145f66140c6565b905061460282826145bb565b919050565b600067ffffffffffffffff8211156146225761462161458c565b5b61462b82613df3565b9050602081019050919050565b82818337600083830152505050565b600061465a61465584614607565b6145ec565b90508281526020810184848401111561467657614675614587565b5b614681848285614638565b509392505050565b600082601f83011261469e5761469d614582565b5b81356146ae848260208601614647565b91505092915050565b6146c081613d94565b81146146cb57600080fd5b50565b6000813590506146dd816146b7565b92915050565b600080604083850312156146fa576146f96140d0565b5b600083013567ffffffffffffffff811115614718576147176140d5565b5b61472485828601614689565b9250506020614735858286016146ce565b9150509250929050565b6000606083016000830151848203600086015261475c8282613e97565b9150506020830151848203602086015261477682826143fd565b915050604083015161478b6040860182613e88565b508091505092915050565b600060208201905081810360008301526147b0818461473f565b905092915050565b6000602082840312156147ce576147cd6140d0565b5b600082013567ffffffffffffffff8111156147ec576147eb6140d5565b5b6147f884828501614689565b91505092915050565b600060a0830160008301516148196000860182613d9e565b50602083015184820360208601526148318282613e04565b9150506040830151848203604086015261484b8282613e04565b91505060608301516148606060860182613e6f565b5060808301516148736080860182613e88565b508091505092915050565b600060e0830160008301516148966000860182613d9e565b50602083015184820360208601526148ae8282613e04565b915050604083015184820360408601526148c88282613e04565b91505060608301516148dd6060860182613d9e565b5060808301516148f06080860182613e6f565b5060a083015161490360a0860182613e88565b5060c083015161491660c0860182613e88565b508091505092915050565b6000606082019050818103600083015261493b8186614801565b9050818103602083015261494f818561487e565b905061495e60408301846141ad565b949350505050565b60006101008201905061497c600083018b614133565b818103602083015261498e818a614153565b905061499d6040830189614133565b6149aa6060830188614133565b6149b76080830187614133565b6149c460a083018661419e565b6149d160c08301856141ad565b6149de60e08301846141ad565b9998505050505050505050565b6149f481613e5d565b82525050565b600060a082019050614a0f6000830188614133565b8181036020830152614a218187614153565b90508181036040830152614a358186614153565b9050614a4460608301856149eb565b614a5160808301846141ad565b9695505050505050565b600081519050919050565b600082825260208201905092915050565b6000819050602082019050919050565b600060e083016000830151614a9f6000860182613d9e565b5060208301518482036020860152614ab78282613e04565b9150506040830151614acc6040860182613d9e565b506060830151614adf6060860182613d9e565b506080830151614af260808601826142d0565b5060a0830151614b0560a0860182613e88565b5060c0830151614b1860c0860182613e88565b508091505092915050565b6000614b2f8383614a87565b905092915050565b6000602082019050919050565b6000614b4f82614a5b565b614b598185614a66565b935083602082028501614b6b85614a77565b8060005b85811015614ba75784840389528151614b888582614b23565b9450614b9383614b37565b925060208a01995050600181019050614b6f565b50829750879550505050505092915050565b60006020820190508181036000830152614bd38184614b44565b905092915050565b600081519050919050565b600082825260208201905092915050565b6000819050602082019050919050565b6000614c138383613e97565b905092915050565b6000602082019050919050565b6000614c3382614bdb565b614c3d8185614be6565b935083602082028501614c4f85614bf7565b8060005b85811015614c8b5784840389528151614c6c8582614c07565b9450614c7783614c1b565b925060208a01995050600181019050614c53565b50829750879550505050505092915050565b60006020820190508181036000830152614cb78184614c28565b905092915050565b60008060408385031215614cd657614cd56140d0565b5b600083013567ffffffffffffffff811115614cf457614cf36140d5565b5b614d0085828601614689565b925050602083013567ffffffffffffffff811115614d2157614d206140d5565b5b614d2d85828601614689565b9150509250929050565b60006020820190508181036000830152614d518184614801565b905092915050565b60006060820190508181036000830152614d738186614801565b90508181036020830152614d8781856142df565b9050614d9660408301846141ad565b949350505050565b60008060408385031215614db557614db46140d0565b5b6000614dc3858286016146ce565b9250506020614dd48582860161428e565b9150509250929050565b600060208284031215614df457614df36140d0565b5b6000614e02848285016146ce565b91505092915050565b60008060408385031215614e2257614e216140d0565b5b6000614e30858286016146ce565b9250506020614e41858286016146ce565b9150509250929050565b608082016000820151614e616000850182613d9e565b506020820151614e746020850182613d9e565b506040820151614e8760408501826142d0565b506060820151614e9a6060850182613e88565b50505050565b6000608082019050614eb56000830184614e4b565b92915050565b600081519050919050565b600082825260208201905092915050565b6000819050602082019050919050565b6000614ef38383613f14565b905092915050565b6000602082019050919050565b6000614f1382614ebb565b614f1d8185614ec6565b935083602082028501614f2f85614ed7565b8060005b85811015614f6b5784840389528151614f4c8582614ee7565b9450614f5783614efb565b925060208a01995050600181019050614f33565b50829750879550505050505092915050565b60006020820190508181036000830152614f978184614f08565b905092915050565b60006060830160008301518482036000860152614fbc8282613e97565b91505060208301518482036020860152614fd68282613f14565b9150506040830151614feb6040860182613e88565b508091505092915050565b600060208201905081810360008301526150108184614f9f565b905092915050565b600080600060608486031215615031576150306140d0565b5b600084013567ffffffffffffffff81111561504f5761504e6140d5565b5b61505b86828701614689565b935050602084013567ffffffffffffffff81111561507c5761507b6140d5565b5b61508886828701614689565b9250506040615099868287016146ce565b9150509250925092565b600060208201905081810360008301526150bd818461487e565b905092915050565b6000806000606084860312156150de576150dd6140d0565b5b60006150ec868287016146ce565b93505060206150fd868287016146ce565b925050604084013567ffffffffffffffff81111561511e5761511d6140d5565b5b61512a86828701614689565b9150509250925092565b600060e08301600083015161514c6000860182613d9e565b50602083015184820360208601526151648282613e04565b91505060408301516151796040860182613d9e565b50606083015161518c6060860182613d9e565b50608083015161519f60808601826142d0565b5060a08301516151b260a0860182613e88565b5060c08301516151c560c0860182613e88565b508091505092915050565b600060208201905081810360008301526151ea8184615134565b905092915050565b600060e082019050615207600083018a614133565b81810360208301526152198189614153565b9050818103604083015261522d8188614153565b905061523c6060830187614133565b61524960808301866149eb565b61525660a08301856141ad565b61526360c08301846141ad565b98975050505050505050565b600081519050919050565b600082825260208201905092915050565b6000819050602082019050919050565b6080820160008201516152b16000850182613d9e565b5060208201516152c46020850182613d9e565b5060408201516152d760408501826142d0565b5060608201516152ea6060850182613e88565b50505050565b60006152fc838361529b565b60808301905092915050565b6000602082019050919050565b60006153208261526f565b61532a818561527a565b93506153358361528b565b8060005b8381101561536657815161534d88826152f0565b975061535883615308565b925050600181019050615339565b5085935050505092915050565b6000602082019050818103600083015261538d8184615315565b905092915050565b7f4e487b7100000000000000000000000000000000000000000000000000000000600052602260045260246000fd5b600060028204905060018216806153dc57607f821691505b6020821081036153ef576153ee615395565b5b50919050565b7f4e487b7100000000000000000000000000000000000000000000000000000000600052603260045260246000fd5b7f4e487b7100000000000000000000000000000000000000000000000000000000600052601160045260246000fd5b600061545e82613e7e565b91507fffffffffffffffffffffffffffffffffffffffffffffffffffffffffffffffff82036154905761548f615424565b5b600182019050919050565b600081905092915050565b60006154b182613dad565b6154bb818561549b565b93506154cb818560208601613dc9565b80840191505092915050565b6000819050919050565b6154f26154ed82613d94565b6154d7565b82525050565b60008160601b9050919050565b6000615510826154f8565b9050919050565b600061552282615505565b9050919050565b61553a6155358261418c565b615517565b82525050565b6000819050919050565b61555b61555682613e7e565b615540565b82525050565b600061556d82876154a6565b915061557982866154e1565b6020820191506155898285615529565b601482019150615599828461554a565b60208201915081905095945050505050565b60008190508160005260206000209050919050565b60006020601f8301049050919050565b600082821b905092915050565b60006008830261560d7fffffffffffffffffffffffffffffffffffffffffffffffffffffffffffffffff826155d0565b61561786836155d0565b95508019841693508086168417925050509392505050565b6000819050919050565b600061565461564f61564a84613e7e565b61562f565b613e7e565b9050919050565b6000819050919050565b61566e83615639565b61568261567a8261565b565b8484546155dd565b825550505050565b600090565b61569761568a565b6156a2818484615665565b505050565b5b818110156156c6576156bb60008261568f565b6001810190506156a8565b5050565b601f82111561570b576156dc816155ab565b6156e5846155c0565b810160208510156156f4578190505b615708615700856155c0565b8301826156a7565b50505b505050565b600082821c905092915050565b600061572e60001984600802615710565b1980831691505092915050565b6000615747838361571d565b9150826002028217905092915050565b61576082613dad565b67ffffffffffffffff8111156157795761577861458c565b5b61578382546153c4565b61578e8282856156ca565b600060209050601f8311600181146157c157600084156157af578287015190505b6157b9858261573b565b865550615821565b601f1984166157cf866155ab565b60005b828110156157f7578489015182556001820191506020850194506020810190506157d2565b868310156158145784890151615810601f89168261571d565b8355505b6001600288020188555050505b505050505050565b600061583582846154a6565b915081905092915050565b6000815461584d816153c4565b615857818661549b565b945060018216600081146158725760018114615887576158ba565b60ff19831686528115158202860193506158ba565b615890856155ab565b60005b838110156158b257815481890152600182019150602081019050615893565b838801955050505b50505092915050565b60006158cf8284615840565b915081905092915050565b60006158e682876154a6565b91506158f282866154a6565b91506158fe8285615529565b60148201915061590e828461554a565b60208201915081905095945050505050565b600061592c82886154a6565b915061593882876154a6565b915061594482866154e1565b6020820191506159548285615529565b601482019150615964828461554a565b6020820191508190509695505050505050565b600061598382886154e1565b60208201915061599382876154e1565b6020820191506159a382866154a6565b91506159af8285615529565b6014820191506159bf828461554a565b602082019150819050969550505050505056fea26469706673582212201a8fd7d95515b9e9354644cbb0a03728006371276aaefc08a88f32159432bcd664736f6c63430008110033",
  "linkReferences": {},
  "deployedLinkReferences": {}
}