{
    "_format": "hh-sol-artifact-1",
    "contractName": "Disscord",
    "sourceName": "contracts/Disscord.sol",
    "abi": [
        {
            "inputs": [
                {
                    "internalType": "string",
                    "name": "_name",
                    "type": "string"
                },
                {
                    "internalType": "string",
                    "name": "_about",
                    "type": "string"
                }
            ],
            "name": "createServer",
            "outputs": [
                {
                    "components": [
                        {
                            "internalType": "bytes32",
                            "name": "id",
                            "type": "bytes32"
                        },
                        {
                            "internalType": "string",
                            "name": "name",
                            "type": "string"
                        },
                        {
                            "internalType": "string",
                            "name": "about",
                            "type": "string"
                        },
                        {
                            "internalType": "address payable",
                            "name": "owner",
                            "type": "address"
                        },
                        {
                            "internalType": "uint256",
                            "name": "createdAt",
                            "type": "uint256"
                        }
                    ],
                    "internalType": "struct Disscord.Server",
                    "name": "",
                    "type": "tuple"
                }
            ],
            "stateMutability": "nonpayable",
            "type": "function"
        },
        {
            "inputs": [
                {
                    "internalType": "bytes32",
                    "name": "id",
                    "type": "bytes32"
                }
            ],
            "name": "getServer",
            "outputs": [
                {
                    "components": [
                        {
                            "internalType": "bytes32",
                            "name": "id",
                            "type": "bytes32"
                        },
                        {
                            "internalType": "string",
                            "name": "name",
                            "type": "string"
                        },
                        {
                            "internalType": "string",
                            "name": "about",
                            "type": "string"
                        },
                        {
                            "internalType": "address payable",
                            "name": "owner",
                            "type": "address"
                        },
                        {
                            "internalType": "uint256",
                            "name": "createdAt",
                            "type": "uint256"
                        }
                    ],
                    "internalType": "struct Disscord.Server",
                    "name": "",
                    "type": "tuple"
                }
            ],
            "stateMutability": "view",
            "type": "function"
        },
        {
            "inputs": [],
            "name": "getServers",
            "outputs": [
                {
                    "components": [
                        {
                            "internalType": "bytes32",
                            "name": "id",
                            "type": "bytes32"
                        },
                        {
                            "internalType": "string",
                            "name": "name",
                            "type": "string"
                        },
                        {
                            "internalType": "string",
                            "name": "about",
                            "type": "string"
                        },
                        {
                            "internalType": "address payable",
                            "name": "owner",
                            "type": "address"
                        },
                        {
                            "internalType": "uint256",
                            "name": "createdAt",
                            "type": "uint256"
                        }
                    ],
                    "internalType": "struct Disscord.Server[]",
                    "name": "",
                    "type": "tuple[]"
                }
            ],
            "stateMutability": "view",
            "type": "function"
        },
        {
            "inputs": [
                {
                    "internalType": "uint256",
                    "name": "",
                    "type": "uint256"
                }
            ],
            "name": "servers",
            "outputs": [
                {
                    "internalType": "bytes32",
                    "name": "id",
                    "type": "bytes32"
                },
                {
                    "internalType": "string",
                    "name": "name",
                    "type": "string"
                },
                {
                    "internalType": "string",
                    "name": "about",
                    "type": "string"
                },
                {
                    "internalType": "address payable",
                    "name": "owner",
                    "type": "address"
                },
                {
                    "internalType": "uint256",
                    "name": "createdAt",
                    "type": "uint256"
                }
            ],
            "stateMutability": "view",
            "type": "function"
        }
    ],
    "bytecode": "0x608060405234801561001057600080fd5b506112ed806100206000396000f3fe608060405234801561001057600080fd5b506004361061004c5760003560e01c80635cf0f3571461005157806375c1c7e7146100855780637bfc3ce7146100a3578063c17d2efe146100d3575b600080fd5b61006b60048036038101906100669190610832565b610103565b60405161007c959493929190610958565b60405180910390f35b61008d610279565b60405161009a9190610b6f565b60405180910390f35b6100bd60048036038101906100b89190610cc6565b610466565b6040516100ca9190610dbb565b60405180910390f35b6100ed60048036038101906100e89190610e09565b610579565b6040516100fa9190610dbb565b60405180910390f35b6000818154811061011357600080fd5b906000526020600020906005020160009150905080600001549080600101805461013c90610e65565b80601f016020809104026020016040519081016040528092919081815260200182805461016890610e65565b80156101b55780601f1061018a576101008083540402835291602001916101b5565b820191906000526020600020905b81548152906001019060200180831161019857829003601f168201915b5050505050908060020180546101ca90610e65565b80601f01602080910402602001604051908101604052809291908181526020018280546101f690610e65565b80156102435780601f1061021857610100808354040283529160200191610243565b820191906000526020600020905b81548152906001019060200180831161022657829003601f168201915b5050505050908060030160009054906101000a900473ffffffffffffffffffffffffffffffffffffffff16908060040154905085565b60606000805480602002602001604051908101604052809291908181526020016000905b8282101561045d57838290600052602060002090600502016040518060a0016040529081600082015481526020016001820180546102da90610e65565b80601f016020809104026020016040519081016040528092919081815260200182805461030690610e65565b80156103535780601f1061032857610100808354040283529160200191610353565b820191906000526020600020905b81548152906001019060200180831161033657829003601f168201915b5050505050815260200160028201805461036c90610e65565b80601f016020809104026020016040519081016040528092919081815260200182805461039890610e65565b80156103e55780601f106103ba576101008083540402835291602001916103e5565b820191906000526020600020905b8154815290600101906020018083116103c857829003601f168201915b505050505081526020016003820160009054906101000a900473ffffffffffffffffffffffffffffffffffffffff1673ffffffffffffffffffffffffffffffffffffffff1673ffffffffffffffffffffffffffffffffffffffff1681526020016004820154815250508152602001906001019061029d565b50505050905090565b61046e6107a0565b6104766107a0565b42816080018181525050838333836080015160405160200161049b9493929190610f4d565b604051602081830303815290604052805190602001208160000181815250506000819080600181540180825580915050600190039060005260206000209060050201600090919091909150600082015181600001556020820151816001019081610505919061113f565b50604082015181600201908161051b919061113f565b5060608201518160030160006101000a81548173ffffffffffffffffffffffffffffffffffffffff021916908373ffffffffffffffffffffffffffffffffffffffff1602179055506080820151816004015550508091505092915050565b6105816107a0565b6105896107a0565b60005b6000805490508110156107965783600082815481106105ae576105ad611211565b5b9060005260206000209060050201600001540361078357600081815481106105d9576105d8611211565b5b90600052602060002090600502016040518060a00160405290816000820154815260200160018201805461060c90610e65565b80601f016020809104026020016040519081016040528092919081815260200182805461063890610e65565b80156106855780601f1061065a57610100808354040283529160200191610685565b820191906000526020600020905b81548152906001019060200180831161066857829003601f168201915b5050505050815260200160028201805461069e90610e65565b80601f01602080910402602001604051908101604052809291908181526020018280546106ca90610e65565b80156107175780601f106106ec57610100808354040283529160200191610717565b820191906000526020600020905b8154815290600101906020018083116106fa57829003601f168201915b505050505081526020016003820160009054906101000a900473ffffffffffffffffffffffffffffffffffffffff1673ffffffffffffffffffffffffffffffffffffffff1673ffffffffffffffffffffffffffffffffffffffff16815260200160048201548152505091505b808061078e9061126f565b91505061058c565b5080915050919050565b6040518060a00160405280600080191681526020016060815260200160608152602001600073ffffffffffffffffffffffffffffffffffffffff168152602001600081525090565b6000604051905090565b600080fd5b600080fd5b6000819050919050565b61080f816107fc565b811461081a57600080fd5b50565b60008135905061082c81610806565b92915050565b600060208284031215610848576108476107f2565b5b60006108568482850161081d565b91505092915050565b6000819050919050565b6108728161085f565b82525050565b600081519050919050565b600082825260208201905092915050565b60005b838110156108b2578082015181840152602081019050610897565b60008484015250505050565b6000601f19601f8301169050919050565b60006108da82610878565b6108e48185610883565b93506108f4818560208601610894565b6108fd816108be565b840191505092915050565b600073ffffffffffffffffffffffffffffffffffffffff82169050919050565b600061093382610908565b9050919050565b61094381610928565b82525050565b610952816107fc565b82525050565b600060a08201905061096d6000830188610869565b818103602083015261097f81876108cf565b9050818103604083015261099381866108cf565b90506109a2606083018561093a565b6109af6080830184610949565b9695505050505050565b600081519050919050565b600082825260208201905092915050565b6000819050602082019050919050565b6109ee8161085f565b82525050565b600082825260208201905092915050565b6000610a1082610878565b610a1a81856109f4565b9350610a2a818560208601610894565b610a33816108be565b840191505092915050565b610a4781610928565b82525050565b610a56816107fc565b82525050565b600060a083016000830151610a7460008601826109e5565b5060208301518482036020860152610a8c8282610a05565b91505060408301518482036040860152610aa68282610a05565b9150506060830151610abb6060860182610a3e565b506080830151610ace6080860182610a4d565b508091505092915050565b6000610ae58383610a5c565b905092915050565b6000602082019050919050565b6000610b05826109b9565b610b0f81856109c4565b935083602082028501610b21856109d5565b8060005b85811015610b5d5784840389528151610b3e8582610ad9565b9450610b4983610aed565b925060208a01995050600181019050610b25565b50829750879550505050505092915050565b60006020820190508181036000830152610b898184610afa565b905092915050565b600080fd5b600080fd5b7f4e487b7100000000000000000000000000000000000000000000000000000000600052604160045260246000fd5b610bd3826108be565b810181811067ffffffffffffffff82111715610bf257610bf1610b9b565b5b80604052505050565b6000610c056107e8565b9050610c118282610bca565b919050565b600067ffffffffffffffff821115610c3157610c30610b9b565b5b610c3a826108be565b9050602081019050919050565b82818337600083830152505050565b6000610c69610c6484610c16565b610bfb565b905082815260208101848484011115610c8557610c84610b96565b5b610c90848285610c47565b509392505050565b600082601f830112610cad57610cac610b91565b5b8135610cbd848260208601610c56565b91505092915050565b60008060408385031215610cdd57610cdc6107f2565b5b600083013567ffffffffffffffff811115610cfb57610cfa6107f7565b5b610d0785828601610c98565b925050602083013567ffffffffffffffff811115610d2857610d276107f7565b5b610d3485828601610c98565b9150509250929050565b600060a083016000830151610d5660008601826109e5565b5060208301518482036020860152610d6e8282610a05565b91505060408301518482036040860152610d888282610a05565b9150506060830151610d9d6060860182610a3e565b506080830151610db06080860182610a4d565b508091505092915050565b60006020820190508181036000830152610dd58184610d3e565b905092915050565b610de68161085f565b8114610df157600080fd5b50565b600081359050610e0381610ddd565b92915050565b600060208284031215610e1f57610e1e6107f2565b5b6000610e2d84828501610df4565b91505092915050565b7f4e487b7100000000000000000000000000000000000000000000000000000000600052602260045260246000fd5b60006002820490506001821680610e7d57607f821691505b602082108103610e9057610e8f610e36565b5b50919050565b600081905092915050565b6000610eac82610878565b610eb68185610e96565b9350610ec6818560208601610894565b80840191505092915050565b6000610edd82610908565b9050919050565b60008160601b9050919050565b6000610efc82610ee4565b9050919050565b6000610f0e82610ef1565b9050919050565b610f26610f2182610ed2565b610f03565b82525050565b6000819050919050565b610f47610f42826107fc565b610f2c565b82525050565b6000610f598287610ea1565b9150610f658286610ea1565b9150610f718285610f15565b601482019150610f818284610f36565b60208201915081905095945050505050565b60008190508160005260206000209050919050565b60006020601f8301049050919050565b600082821b905092915050565b600060088302610ff57fffffffffffffffffffffffffffffffffffffffffffffffffffffffffffffffff82610fb8565b610fff8683610fb8565b95508019841693508086168417925050509392505050565b6000819050919050565b600061103c611037611032846107fc565b611017565b6107fc565b9050919050565b6000819050919050565b61105683611021565b61106a61106282611043565b848454610fc5565b825550505050565b600090565b61107f611072565b61108a81848461104d565b505050565b5b818110156110ae576110a3600082611077565b600181019050611090565b5050565b601f8211156110f3576110c481610f93565b6110cd84610fa8565b810160208510156110dc578190505b6110f06110e885610fa8565b83018261108f565b50505b505050565b600082821c905092915050565b6000611116600019846008026110f8565b1980831691505092915050565b600061112f8383611105565b9150826002028217905092915050565b61114882610878565b67ffffffffffffffff81111561116157611160610b9b565b5b61116b8254610e65565b6111768282856110b2565b600060209050601f8311600181146111a95760008415611197578287015190505b6111a18582611123565b865550611209565b601f1984166111b786610f93565b60005b828110156111df578489015182556001820191506020850194506020810190506111ba565b868310156111fc57848901516111f8601f891682611105565b8355505b6001600288020188555050505b505050505050565b7f4e487b7100000000000000000000000000000000000000000000000000000000600052603260045260246000fd5b7f4e487b7100000000000000000000000000000000000000000000000000000000600052601160045260246000fd5b600061127a826107fc565b91507fffffffffffffffffffffffffffffffffffffffffffffffffffffffffffffffff82036112ac576112ab611240565b5b60018201905091905056fea2646970667358221220f3175f3e4d2c4cecd2c50b02c076b3e69dd3c08a6110fdc6befdfde0b66b506164736f6c63430008110033",
    "linkReferences": {},
    "deployedLinkReferences": {}
}